{
  "contracts/mocks/FIFOBytes32Harness.sol": {
    "FIFOBytes32Harness": {
      "abi": [
        {
          "inputs": [],
          "name": "QueueEmpty",
          "type": "error"
        },
        {
          "inputs": [],
          "name": "dequeue",
          "outputs": [
            {
              "internalType": "bytes32",
              "name": "",
              "type": "bytes32"
            }
          ],
          "stateMutability": "nonpayable",
          "type": "function"
        },
        {
          "inputs": [
            {
              "internalType": "bytes32",
              "name": "v",
              "type": "bytes32"
            }
          ],
          "name": "enqueue",
          "outputs": [],
          "stateMutability": "nonpayable",
          "type": "function"
        },
        {
          "inputs": [],
          "name": "indices",
          "outputs": [
            {
              "internalType": "uint256",
              "name": "head",
              "type": "uint256"
            },
            {
              "internalType": "uint256",
              "name": "tail",
              "type": "uint256"
            }
          ],
          "stateMutability": "view",
          "type": "function"
        },
        {
          "inputs": [],
          "name": "isEmpty",
          "outputs": [
            {
              "internalType": "bool",
              "name": "",
              "type": "bool"
            }
          ],
          "stateMutability": "view",
          "type": "function"
        },
        {
          "inputs": [],
          "name": "length",
          "outputs": [
            {
              "internalType": "uint256",
              "name": "",
              "type": "uint256"
            }
          ],
          "stateMutability": "view",
          "type": "function"
        },
        {
          "inputs": [],
          "name": "peek",
          "outputs": [
            {
              "internalType": "bytes32",
              "name": "",
              "type": "bytes32"
            }
          ],
          "stateMutability": "view",
          "type": "function"
        },
        {
          "inputs": [],
          "name": "resetIfEmpty",
          "outputs": [],
          "stateMutability": "nonpayable",
          "type": "function"
        }
      ],
      "evm": {
        "bytecode": {
          "linkReferences": {},
          "object": "6080604052348015600f57600080fd5b506102a88061001f6000396000f3fe608060405234801561001057600080fd5b506004361061007d5760003560e01c806359e02dd71161005b57806359e02dd7146100c2578063681fe70c146100ca578063957908d1146100df578063b4de3e23146100e757600080fd5b8063086b9113146100825780631f7b6d321461008c5780632b7eafd2146100a7575b600080fd5b61008a610114565b005b610094610120565b6040519081526020015b60405180910390f35b6001546002546040805192835260208301919091520161009e565b610094610131565b6002546001546040519114815260200161009e565b61009461013d565b61008a6100f5366004610238565b6002805460009081526020819052604090208290558054600101905550565b61011e600061014c565b565b600061012c600061016c565b905090565b600061012c6000610188565b600061012c60006101c9565b50565b806002015481600101540361014957600060018201819055600282015550565b6000816001015482600201546101829190610251565b92915050565b600181015460028201546000919081036101b5576040516375e52f4f60e01b815260040160405180910390fd5b600090815260209290925250604090205490565b60018101546002820154600091908082036101f7576040516375e52f4f60e01b815260040160405180910390fd5b600082815260208590526040902054925060018083019282900301610229576000600185018190556002850155610231565b600184018290555b5050919050565b60006020828403121561024a57600080fd5b5035919050565b8181038181111561018257634e487b7160e01b600052601160045260246000fdfea2646970667358221220feec2b100da1cd02b75b6edfaa051b799b65427ba1ff07e889109f213f3ef06b64736f6c634300081c0033",
          "opcodes": "PUSH1 0x80 PUSH1 0x40 MSTORE CALLVALUE DUP1 ISZERO PUSH1 0xF JUMPI PUSH1 0x0 DUP1 REVERT JUMPDEST POP PUSH2 0x2A8 DUP1 PUSH2 0x1F PUSH1 0x0 CODECOPY PUSH1 0x0 RETURN INVALID PUSH1 0x80 PUSH1 0x40 MSTORE CALLVALUE DUP1 ISZERO PUSH2 0x10 JUMPI PUSH1 0x0 DUP1 REVERT JUMPDEST POP PUSH1 0x4 CALLDATASIZE LT PUSH2 0x7D JUMPI PUSH1 0x0 CALLDATALOAD PUSH1 0xE0 SHR DUP1 PUSH4 0x59E02DD7 GT PUSH2 0x5B JUMPI DUP1 PUSH4 0x59E02DD7 EQ PUSH2 0xC2 JUMPI DUP1 PUSH4 0x681FE70C EQ PUSH2 0xCA JUMPI DUP1 PUSH4 0x957908D1 EQ PUSH2 0xDF JUMPI DUP1 PUSH4 0xB4DE3E23 EQ PUSH2 0xE7 JUMPI PUSH1 0x0 DUP1 REVERT JUMPDEST DUP1 PUSH4 0x86B9113 EQ PUSH2 0x82 JUMPI DUP1 PUSH4 0x1F7B6D32 EQ PUSH2 0x8C JUMPI DUP1 PUSH4 0x2B7EAFD2 EQ PUSH2 0xA7 JUMPI JUMPDEST PUSH1 0x0 DUP1 REVERT JUMPDEST PUSH2 0x8A PUSH2 0x114 JUMP JUMPDEST STOP JUMPDEST PUSH2 0x94 PUSH2 0x120 JUMP JUMPDEST PUSH1 0x40 MLOAD SWAP1 DUP2 MSTORE PUSH1 0x20 ADD JUMPDEST PUSH1 0x40 MLOAD DUP1 SWAP2 SUB SWAP1 RETURN JUMPDEST PUSH1 0x1 SLOAD PUSH1 0x2 SLOAD PUSH1 0x40 DUP1 MLOAD SWAP3 DUP4 MSTORE PUSH1 0x20 DUP4 ADD SWAP2 SWAP1 SWAP2 MSTORE ADD PUSH2 0x9E JUMP JUMPDEST PUSH2 0x94 PUSH2 0x131 JUMP JUMPDEST PUSH1 0x2 SLOAD PUSH1 0x1 SLOAD PUSH1 0x40 MLOAD SWAP2 EQ DUP2 MSTORE PUSH1 0x20 ADD PUSH2 0x9E JUMP JUMPDEST PUSH2 0x94 PUSH2 0x13D JUMP JUMPDEST PUSH2 0x8A PUSH2 0xF5 CALLDATASIZE PUSH1 0x4 PUSH2 0x238 JUMP JUMPDEST PUSH1 0x2 DUP1 SLOAD PUSH1 0x0 SWAP1 DUP2 MSTORE PUSH1 0x20 DUP2 SWAP1 MSTORE PUSH1 0x40 SWAP1 KECCAK256 DUP3 SWAP1 SSTORE DUP1 SLOAD PUSH1 0x1 ADD SWAP1 SSTORE POP JUMP JUMPDEST PUSH2 0x11E PUSH1 0x0 PUSH2 0x14C JUMP JUMPDEST JUMP JUMPDEST PUSH1 0x0 PUSH2 0x12C PUSH1 0x0 PUSH2 0x16C JUMP JUMPDEST SWAP1 POP SWAP1 JUMP JUMPDEST PUSH1 0x0 PUSH2 0x12C PUSH1 0x0 PUSH2 0x188 JUMP JUMPDEST PUSH1 0x0 PUSH2 0x12C PUSH1 0x0 PUSH2 0x1C9 JUMP JUMPDEST POP JUMP JUMPDEST DUP1 PUSH1 0x2 ADD SLOAD DUP2 PUSH1 0x1 ADD SLOAD SUB PUSH2 0x149 JUMPI PUSH1 0x0 PUSH1 0x1 DUP3 ADD DUP2 SWAP1 SSTORE PUSH1 0x2 DUP3 ADD SSTORE POP JUMP JUMPDEST PUSH1 0x0 DUP2 PUSH1 0x1 ADD SLOAD DUP3 PUSH1 0x2 ADD SLOAD PUSH2 0x182 SWAP2 SWAP1 PUSH2 0x251 JUMP JUMPDEST SWAP3 SWAP2 POP POP JUMP JUMPDEST PUSH1 0x1 DUP2 ADD SLOAD PUSH1 0x2 DUP3 ADD SLOAD PUSH1 0x0 SWAP2 SWAP1 DUP2 SUB PUSH2 0x1B5 JUMPI PUSH1 0x40 MLOAD PUSH4 0x75E52F4F PUSH1 0xE0 SHL DUP2 MSTORE PUSH1 0x4 ADD PUSH1 0x40 MLOAD DUP1 SWAP2 SUB SWAP1 REVERT JUMPDEST PUSH1 0x0 SWAP1 DUP2 MSTORE PUSH1 0x20 SWAP3 SWAP1 SWAP3 MSTORE POP PUSH1 0x40 SWAP1 KECCAK256 SLOAD SWAP1 JUMP JUMPDEST PUSH1 0x1 DUP2 ADD SLOAD PUSH1 0x2 DUP3 ADD SLOAD PUSH1 0x0 SWAP2 SWAP1 DUP1 DUP3 SUB PUSH2 0x1F7 JUMPI PUSH1 0x40 MLOAD PUSH4 0x75E52F4F PUSH1 0xE0 SHL DUP2 MSTORE PUSH1 0x4 ADD PUSH1 0x40 MLOAD DUP1 SWAP2 SUB SWAP1 REVERT JUMPDEST PUSH1 0x0 DUP3 DUP2 MSTORE PUSH1 0x20 DUP6 SWAP1 MSTORE PUSH1 0x40 SWAP1 KECCAK256 SLOAD SWAP3 POP PUSH1 0x1 DUP1 DUP4 ADD SWAP3 DUP3 SWAP1 SUB ADD PUSH2 0x229 JUMPI PUSH1 0x0 PUSH1 0x1 DUP6 ADD DUP2 SWAP1 SSTORE PUSH1 0x2 DUP6 ADD SSTORE PUSH2 0x231 JUMP JUMPDEST PUSH1 0x1 DUP5 ADD DUP3 SWAP1 SSTORE JUMPDEST POP POP SWAP2 SWAP1 POP JUMP JUMPDEST PUSH1 0x0 PUSH1 0x20 DUP3 DUP5 SUB SLT ISZERO PUSH2 0x24A JUMPI PUSH1 0x0 DUP1 REVERT JUMPDEST POP CALLDATALOAD SWAP2 SWAP1 POP JUMP JUMPDEST DUP2 DUP2 SUB DUP2 DUP2 GT ISZERO PUSH2 0x182 JUMPI PUSH4 0x4E487B71 PUSH1 0xE0 SHL PUSH1 0x0 MSTORE PUSH1 0x11 PUSH1 0x4 MSTORE PUSH1 0x24 PUSH1 0x0 REVERT INVALID LOG2 PUSH5 0x6970667358 0x22 SLT KECCAK256 INVALID 0xEC 0x2B LT 0xD LOG1 0xCD MUL 0xB7 JUMPDEST PUSH15 0xDFAA051B799B65427BA1FF07E88910 SWAP16 0x21 EXTCODEHASH RETURNDATACOPY CREATE PUSH12 0x64736F6C634300081C003300 "
        },
        "methodIdentifiers": {
          "dequeue()": "957908d1",
          "enqueue(bytes32)": "b4de3e23",
          "indices()": "2b7eafd2",
          "isEmpty()": "681fe70c",
          "length()": "1f7b6d32",
          "peek()": "59e02dd7",
          "resetIfEmpty()": "086b9113"
        }
      }
    }
  }
}